:020000040800F2
:10000000380F0020D5000008493200084B320008A4
:1000100000000000000000000000000000000000E0
:100020000000000000000000000000004D32000849
:1000300000000000000000004F32000851320008AC
:10004000E7000008E7000008E7000008E7000008F4
:10005000E7000008E7000008E7000008E7000008E4
:10006000E7000008E7000008E7000008E7000008D4
:10007000E7000008E7000008E7000008E7000008C4
:10008000E7000008E7000008E7000008E7000008B4
:10009000E7000008E7000008E7000008E7000008A4
:1000A000E7000008E7000008E7000008E700000894
:1000B000E7000008E700000853320008E7000008E6
:1000C0000348854603F0E6F8004800477D31000804
:1000D000380F00200448804704480047FEE7FEE749
:1000E000FEE7FEE7FEE7FEE795070008C10000080F
:1000F000092110B5C906884202D101214C0404E04F
:100100005049884209D101210402204600F0BDFA7D
:100110000021204600F0B9FA10BD4B49884202D1B7
:1001200001210402F1E74949884202D101210C056D
:10013000EBE74749884202D101214402E5E74549FE
:100140008842E9D101218C05DFE7F0B500220124C6
:1001500023460D6893401D409D422AD10D79012D03
:1001600001D0022D12D1876855000326AE40B74357
:1001700087604E79AE4085682E43866085889D43B2
:10018000858085888B7993401D438580066855005E
:100190000323AB409E4306600E790768AE403E43A2
:1001A0000660C6689E43C660CB79AB40C5682B43EA
:1001B000C360521C102ACBD3F0BD27490160002137
:1001C0000171012242718171C1717047012208B52C
:1001D00012040A430092C261C1610099C161C16900
:1001E000C069009008BD0246128A00200A4200D071
:1001F00001207047008A70470246928A00200A4216
:1002000000D001207047808A704781617047018566
:100210007047002A01D08161704701857047818253
:1002200070474B07DB0E9A40C90810B589000818C3
:10023000016A0F249C40A1430162016A11430162DB
:1002400010BD00000004004800080048000C0048F1
:100250000010004800140048FFFF0000F748016844
:100260000122114301604168F54A11404160016873
:10027000F44A114001600168012292049143016037
:1002800041683F22120491434160C16A0909090192
:10029000C162016BFF22543291430163416B4908F3
:1002A00049004163002181607047E44900228A705F
:1002B0008870704703460020E0495A090CD0012A93
:1002C0000CD0022A0CD0496BDA06D20E01239340DF
:1002D0000B4200D0012070470968F5E7096AF3E78F
:1002E000496AF1E718B50020052424030090112085
:1002F000FFF7E0FF0099491C0091A14201D00028BE
:10030000F5D01120FFF7D6FF002800D0012018BD3E
:10031000CA4A1168F8239943C00008431060704727
:10032000C6490028086802D00122104301E04008B5
:10033000400008607047C14A516BF8239943C000E0
:10034000084350637047BD490028486B02D0012222
:10035000104301E04008400048637047B749042259
:100360000028486B01D0904300E010434863704779
:10037000B2490A6A520852000A620A6A04239A437E
:100380000A620A6A02430A627047AC490A6A182381
:100390009A430A620A6A02430A627047A749002820
:1003A000486A02D00122104301E040084000486240
:1003B000704710B5A14A53687B24E403A3435360FC
:1003C000536808430343536010BD01229B49120642
:1003D0000028086801D0104300E09043086070478F
:1003E0000122964912040028486B01D0104300E016
:1003F000904348637047914AD16A09090901014352
:10040000D162704701228D49D2040028086801D0CA
:10041000104300E0904308607047884A53681B020D
:100420001B0A00060843184350607047834A51680E
:1004300089088900014351607047804840680C2159
:10044000084070477D4A5168F02399430143516049
:1004500070477A4A516807231B0299430143516050
:10046000704776494A6801239B039A434A604A6869
:1004700083B21A434A600A6B8B159A430A630A6B6C
:10048000000C02430A6370476C490A6B40239A438D
:100490000A630A6B02430A63704768490A6B1023B8
:1004A0009A430A630A6B02430A637047020F634967
:1004B000012A0A6B07D003231B049A430A630A6BC1
:1004C00002430A63704792089200F7E75B490A6BA0
:1004D00080239A430A630A6B02430A637047F8B5A4
:1004E000564D0446696800200C22574E114005D035
:1004F000042903D0082903D00C2918D0266018E05D
:100500006968686803228902D2030F0F1040BF1C7C
:10051000002809D0E86A0107090F3046491C02F09B
:1005200099FE7843206004E048487843FAE7484958
:1005300021606968474B0906090F5A5C21680F461C
:10054000D74067606A685205520F9A5CD740A7602F
:100550002A6BD20501D4404A05E06A68520401D4EE
:100560007A0800E0BA08E2602A6B53063B4A03D4DB
:100570003A4B1233236100E022612B6BDB0601D47E
:10058000666100E061612B6B9B070ED02B6B9B07B4
:100590009B0F012B0BD02B6B9B079B0F022B08D0C3
:1005A0002B6BDB439B0706D006E0A76104E0A1614B
:1005B00002E0A26100E0A6612B6B9B039B0F0FD0B2
:1005C0002B6B9B039B0F012B0CD0296B8903890F8D
:1005D000022909D0296B8903890F032906D006E077
:1005E000E76104E0E16102E0E26100E0E661296BBD
:1005F000090600D416482062F8BD10490A6A024371
:100600000A6270470D490028144A086A01D0104355
:1006100000E0904308627047012208491204002854
:10062000086A01D0104300E0904308627047034A13
:100630000029516914D0014313E00000001002406A
:100640000CB8FF08FFFFF6FE00127A0000093D001B
:10065000006CDC0220020020809FD500008000009A
:10066000814351617047244A0029916901D00143B7
:1006700000E08143916170471F4A0029D16901D090
:10068000014300E08143D16170471B4A0029916A10
:1006900001D0014300E0814391627047164A00296E
:1006A000D16801D0014300E08143D1607047124A14
:1006B0000029116901D0014300E0814311617047B5
:1006C0000D4A0029517A01D0014300E08143517263
:1006D00070470948416A012212061143416270477E
:1006E000054A0146926800200A4200D00120704766
:1006F00001498872704700000010024024480168D8
:100700008907890F016000218160C1600161416139
:10071000816982151143816170471D4A11688908FA
:100720008900014311607047194A0029116801D0FE
:10073000014300E0814311607047154A00291168A8
:1007400001D0014300E08143116070478A07130F15
:1007500010B50F229A408C080D49A40061188C68CE
:1007600094438C608A68984002438A6010BD0849AF
:100770008A6902438A617047054900208969C90571
:1007800000D50120704702498A6902438A61704797
:1007900000000140444801680122114301604168A2
:1007A000424A114041600168414A114001600168BC
:1007B000012292049143016041683F221204914357
:1007C0004160C16A09090901C162016B394A1140DE
:1007D0000163416B49084900416302680121090432
:1007E0000A43026002689203FCD542680323DB03DC
:1007F0009A43426000BF00BF00BF00BF42680A4387
:1008000042600021C16242680F239B049A43426008
:10081000026801231B061A43026002689201FCD59C
:10082000426892089200426000BF00BF00BF00BF54
:10083000426802231A43426042681207920F022A5A
:10084000FAD18160704770B5174D69680C2001407E
:1008500019481A4C05D0042903D0082903D00C29C3
:1008600020D0206014E06A68696803239202DB03E9
:10087000160F1940B61C002907D0E96A0907090FAD
:10088000491C02F0E7FC7043EBE70D484643266045
:1008900068680A490006000F091D085C2168C1400C
:1008A000216070BD0748DCE7001002400CB8FF086B
:1008B000FFFFF6FE2CFEFCFF00127A003002002043
:1008C00000093D00006CDC0227490A680260898843
:1008D00081807047F8B515460E46074600F02BFBA1
:1008E000040004D12A463146384600F0C6FE2046B0
:1008F000F8BD10B500F054FB10BD10B5044600F073
:100900001AFB002802D1204600F07AFB10BD10B57A
:1009100000F0A2FB10BD10B500F00CFC044600F086
:10092000BBFC204610BD014609680120002900D10A
:10093000002070478188002904D0491E0904090C51
:10094000818002D108490968016080887047016888
:10095000002902D0491E0160704781880029FBD11F
:100960000121818070470000D8320008F8B50020CE
:1009700069460880174800240588466807E0A000FB
:10098000315868468847002803D0641CA4B2AC42A2
:10099000F5D368460088F8BD10B500F0DFFE0028EA
:1009A00001D000F0C9FE10BD70B50546002000F072
:1009B000D8F8040003D100F002F901202880204675
:1009C00070BD10B5044600F0B5FB002801D102212E
:1009D000218010BDE832000810B5884203D00028FD
:1009E00001D000F05FF810BD002805D0002301E021
:1009F000C1545B1C9342FBD3704708B501460222E9
:100A0000684600F04FF86846008840BA08BD08B54F
:100A100001460222684600F045F86846008808BD95
:100A200008B501460422684600F03CF8009800BA78
:100A300008BD08B501460422684600F033F8009866
:100A400008BD08B549BA6A4611800222694600F01D
:100A500029F808BD08B56A4611800222694600F0EF
:100A600021F808BD08B509BA00910422694600F0D2
:100A700019F808BD08B500910422694600F012F883
:100A800008BD10B501E05B1E9BB204680C409442A7
:100A900002D0002BF7D103E0002B01D0002010BDC5
:100AA000012010BD10B5002302E0CC5CC4545B1CD7
:100AB0009342FAD310BD000070B55F4C0346258801
:100AC00001209D4218D9002916D064681B01E41842
:100AD000A3688B4201D0002B0ED10E4615466088CC
:100AE00000F03BFD002808D0E168002904D0324620
:100AF0002846FFF771FF002070BD60882B46A26872
:100B0000616800F0BDFC70BD70B54B4C13460246E9
:100B100025880120954210D900290ED06468120161
:100B2000A2181488022C08D194688C4205D15088F0
:100B300054680A46214600F0BBFC70BD10B53E4A21
:100B40000146138801208B420AD9526809015418C2
:100B5000E368002B04D06088A268616800F0A8FCFC
:100B600010BD70B5344A01461388012088B08B420D
:100B700017D9526809015418E168002911D060881A
:100B80006B46A268616800F07BFC002809D1002157
:100B90006B46A26808E0E5685E5C6D5CB54202D019
:100BA000012008B070BD491C8A42F4D8F9E7224AF6
:100BB0000146128801208A4200D90020704710B5F2
:100BC0001D4A01461388012088B08B421BD9526808
:100BD000090153181988022915D1D968002912D0A2
:100BE0009A68002A0FD000206A4603E00C5CE443B8
:100BF0001454401C9C688442F8D85888596822468E
:100C00006B4600F055FC08B010BD0B490A888242C3
:100C100004D949680001801C085A7047074870478A
:100C200005490A88824204D94968000108300858F9
:100C30007047002070470000CC330008FFFF000021
:100C400070B5994D01242888260386B0B04202D1A0
:100C5000002006B070BD9548FFF7EBFE944988422E
:100C600014D19248001DFFF7E4FE924988420DD14D
:100C7000914840684068049001204007C168684678
:100C8000884768464478002C00D12E802046E0E753
:100C900000B50120400785B001696846884768466D
:100CA0004078002802D1804A0021118005B000BDA3
:100CB00010B586B001AB07C37F4801244068406887
:100CC0000490684600F098FF68464078002800D1FC
:100CD0000024204606B010BDF0B5044689B0C068B7
:100CE00000902188628800276068914201D1A6683F
:100CF00004E0216A0A68496851180E1A0290E069F6
:100D000001903046009902F0A5FA054607911CE0D3
:100D1000676A206A019B009A0299B847070025D1AB
:100D2000009902986D1E4018029001984018019099
:100D30006169A06940187D21C900A061884204D979
:100D40000020A061012000F090FC002DE0D1079967
:100D5000002907D00A46656A206A019B0299A847C4
:100D6000070003D12661A068801BA060384609B047
:100D7000F0BD30B585B00D4601914F490393029205
:100D80004968012449680491C168284602F062FA62
:100D9000002908D16007816968468847684640781D
:100DA000002800D10024204605B030BDF0B5012454
:100DB0000023002A0FD0414E35688D420BD876684B
:100DC000AF198F4207D94D1B5219964203D30380A6
:100DD0004380002441602046F0BD30B50D463249C5
:100DE00014460988012212038BB0914202D00120DF
:100DF0000BB030BD01462A466846FFF7D7FF0028F2
:100E0000F6D12F4809900020069002200590029507
:100E1000684600882949000140180890C06803907E
:100E200007946846FFF758FFE2E710B586B0002048
:100E30000390214802920191406801244068049087
:100E4000600741696846884768464078002800D1B5
:100E5000002420463EE710B50C46134901220988BC
:100E600012038AB0914202D001200AB010BD01469F
:100E700022466846FFF79AFF0028F6D111480990EC
:100E80000020FF21029409310690079005916846E1
:100E900000880A490001401808908068039068465D
:100EA000FFF71AFFE1E700006002002004000020C5
:100EB0003150455800030100A83800084C3700089D
:100EC000730D00082B0E0008F8B50024FD4E27E036
:100ED00020463822F16850430D18A88DFFF767FEB1
:100EE000002801D0102017E0A88DFFF73AFE002857
:100EF0001AD0A88DFFF789FE074600F021FB0028D5
:100F000009D0384600F085FA002804D1A88DFFF7F3
:100F100028FE002808D00220A968641C0880A4B21A
:100F20007088A042D4D8F8BD0120F5E710B5FFF7CE
:100F3000CBFF002010BDF8B5844601208B186D460C
:100F40008B4213D30022DF4F13E03824F868544358
:100F50000419266A646A012034198E4207D8A34214
:100F600005D82A80614692B200200A80F8BD521C42
:100F700092B27C889442E8D8F8BDD24902884B8866
:100F80009A420CD2C96838235A43891889680A885A
:100F9000042A01D102220A800021C943018070473E
:100FA000FFB50E4681B01D460446194600F0C3F950
:100FB000002814D1C3483822C16820880227504332
:100FC0000C18A16A2B46039A3140A08900F070FAF0
:100FD000002800D10427002C01D0A1680F8005B0A3
:100FE000F0BD10B50446008EFFF7E1FD002801D0EA
:100FF000002010BD208EB44A0A21FFF785FD10BDE8
:1010000070B50446012100F096F9050022D1AD48E3
:101010003822C168208850430C18A0680088042832
:1010200011D0216AA06A02260140A089626A00F0FC
:1010300057FA002800D0012005462046FFF7D1FFCF
:10104000284303D101E0012504E04026002C01D013
:10105000A0680680284670BDF7B582B015460446E4
:10106000114600F068F90028B9D196483822C168C5
:101070002088022650430F1803980090204600F065
:1010800067F9002804D120882A46009900F0CBFB9C
:10109000002800D10826002FA1D0B9680E809EE755
:1010A00001460120002910D00A8886494B889A42BF
:1010B0000BD2C96838235A4389188A681288082ACB
:1010C00003D10988042900D0002070471CB50146CF
:1010D000012000292DD00A887A494B889A4228D2CB
:1010E000C96838235A438A1891680988082920D189
:1010F000118804291DD1801E69460880116A906AF2
:1011000001AB01409089042200F0BAF900280CD10B
:1011100001A8FFF77CFC044601A80230FFF777FC2A
:1011200001466A46204600F0F2F96846008800F061
:1011300070F91CBD10B500200146624B0FE038224B
:10114000DC684A43A21892681288012A05D0082A4E
:1011500003D0102A01D0012010BD491C89B25A8841
:101160008A42ECD810BD10B5564900244988814206
:1011700001D900F052FB204610BD10B501460A8887
:10118000504901204B889A4210D2CB6838215143F4
:101190005C18A1680988402909D0082907D01029BE
:1011A00005D0042901D0802900D1652010BD10464A
:1011B000FFF7D9FFA16880200880002010BD4149B9
:1011C0003823CA68414965200988594351188968FC
:1011D0000988802901D0042900D1002070473949AD
:1011E0003823CA6839490120098859435118896848
:1011F0000988802900D10020704732493823CA6805
:1012000032490020098859435118896809880429FE
:1012100000D0652070472B493822C9685043001D13
:10122000085800687047274A3823D2685843001D81
:1012300010580160704747E610B504468068008882
:10124000082804D0012816D0102814D00EE0A08D54
:10125000FFF7ADFC002801D010200AE0A08DFFF7B9
:101260006DFC002804D0A16802200880012010BD78
:101270000120A1680880002010BD10B5114A01218D
:101280005388834206D9D168382250430818FFF7A3
:10129000D3FF0146084610BD70B500263446094DFF
:1012A0000AE03820E96860430818FFF7C5FF002806
:1012B00000D00126641CA4B26888A042F1D8304650
:1012C00070BD0000CC37000898060020A40600205E
:1012D00010B5414A0146538801208B4211D9D0688C
:1012E000382251434418A08DFFF761FC002802D03A
:1012F0000020102103E0A08DFFF761FC0221A2680D
:10130000118010BD10B5344B01225C88844209D98C
:10131000002907D0DA6838235843083010580022D3
:1013200000880880104610BD10B501460A222B48DF
:10133000FFF752FB10BD02460120002A07D000290A
:1013400005D01188244A5288914200D2002070476B
:10135000FEB50546002001901F483822C168288844
:1013600050430F1868690290A8690090C405E40D05
:1013700001D101246402B96A0298194B0140B8896D
:10138000224600F07DF8002806D12888144A21461C
:1013900000F046FA060001D001261AE00098001B72
:1013A00000900298001902900E48012440686402DF
:1013B0004068804701987D212030C9000190884213
:1013C00004D300200190012000F04FF9009800287C
:1013D000D1D13046FEBD0000CC3700089806002071
:1013E00098040020A838000870B501200024684D3A
:1013F0000BE069682201895A090404D4204600F0F0
:10140000BBF8002804D1641CA4B22988A142F0D8FA
:1014100070BD10B55E4A0146128801208A4202D989
:10142000084600F0A9F810BD10B5594A01211388EB
:10143000834209D9526800010C30105800214068DD
:10144000002801D080470146084610BD70B5504CB9
:10145000054626880120AE4211D98E188E420ED341
:10146000002B0CD02A01151D636864685B59083293
:10147000A258994203D399188E4200D8002070BD1B
:10148000F8B51D4616460F460446FFF7DFFF002855
:101490000BD13F48416820010C300858C368002B2D
:1014A00004D02A46314638469847F8BD0120F8BD99
:1014B000F8B51D4616460F460446FFF7C7FF00283D
:1014C0000BD13348416820010C3008588368002B49
:1014D00004D02A46314638469847F8BD0120F8BD69
:1014E00070B515460E4604460123FFF7AFFF0028EE
:1014F0000AD12748416820010C3008580269002AA7
:1015000003D029463046904770BD012070BDF0B52C
:101510000646012000231E4C0EE067681D017F5B1C
:10152000B74207D16768AD1C7D5B8D4202D1138045
:101530000020F0BD5B1C9BB225889D42EDD8F0BD1C
:10154000134A0146138801208B4205D952680901CC
:10155000515A090400D5002070470D4A01461388EE
:1015600001208B4207D9526809010C315158C968D2
:10157000002900D000207047054A01465268090141
:101580000C31515800200968002900D008477047E5
:10159000243800080C480D4940680860406800285D
:1015A00001D040680047704708480068406800283C
:1015B00001D000690047704704480068406800286F
:1015C00001D04069004770473838000864020020A5
:1015D00010B500F031FB7C487A49418000217B4CFA
:1015E0000170206900688047E06800688047FFF765
:1015F0009DFC10BD10B500207549C0430880FFF761
:10160000C9FFFFF7F1FE040001D100F0EBF820461E
:1016100010BD30B46F490B884A6800210AE0CC0045
:10162000145B844204D1C8008018406830BC004775
:10163000491C89B29942F2D330BC704770B5634CF3
:101640000546E0688068804700280DD1A8475E48BD
:101650000178012908D14188491E0904090C4180FB
:1016600002D101706069804770BD5B4980000858F5
:10167000004755495348488070478261416170472F
:101680000022042902D289000818426890008008CC
:1016900070478A0F920010188900426889080A432F
:1016A0004260704710B58B009B085C1E234208D136
:1016B0001A4206D0890F89000918486890431843D8
:1016C000486010BD8A0F92001018444B42688B434B
:1016D0001A404260704700210A468B001B18491CC3
:1016E00089B25A600429F8D370478B0F89000246EB
:1016F00089089B009A18526801200A4200D00020F5
:1017000070478B0F8900024689089B009A1852681F
:101710000120914300D1002070478B0F02469B00AF
:101720009A1852688900012089080A4003D0511E86
:101730000A4200D10020704710B500F080FA00F096
:101740009EFA224C206940688047E06840688047E4
:1017500000F073FA00F074FA10BD7047F0B585B070
:1017600003A801241425029005206946174E88809D
:101770003069816868468847002812D168464088E9
:10178000012403A905280CD30024154A20460B5C2C
:10179000175CBB4201D0012403E0401C80B2052845
:1017A000F5D3F06880688047002800D16D1E002CBA
:1017B00002D0002DDCD102E0034901200870204650
:1017C00005B0F0BD8813000068020020A8380008AA
:1017D000A40600208838000898380008FFFFFF3F63
:1017E0009038000810B5114800688047104800681C
:1017F000804710BD0E49496808470D4A9268104756
:1018000030B404460120042905D109481146C368B3
:10181000204630BC184730BC704704494968084727
:10182000024B9B681847014BDB681847D03800080B
:10183000C0380008F0B5E849E74F095C0124890089
:101840003F1D7D58E34A2B680226B3432B607D5829
:101850002B6823432B607B5801E0521E92B21D6817
:10186000ED0741D0002A51D0DA4A1D68ED07ED0F8F
:101870004CD0D94E0C25684308368519AF68351F02
:10188000DF61335868580360685843681B0701D507
:1018900008234360D148036801252B4303600023DC
:1018A000C3610723C3600023CB4EDD001436AE199D
:1018B0002D1837692F6476696E645B1CDBB21C2BB4
:1018C000F2D300234360022343610723C36103680B
:1018D0005B085B000360C048001D43581D686D082D
:1018E0006D001D60405804E0002AB6D10EE0521E83
:1018F00092B24168C90702D0002AF8D106E0002A56
:1019000004D040688007800F00D100242046F0BD3D
:1019100070B500F021F90024B14D0126285D0128A1
:1019200009D02046FFF786FF002802D00021295564
:1019300070BD2E5500E00020641C2406240EEDD05E
:1019400070BD30B5A64B0020195C002913D0A24908
:10195000A44C095C8A00A049091D8D582C60895847
:10196000A14CCC619D49A14A0A600022CA61CA60AB
:101970004A604A611A54401C0006000EE4D030BD93
:10198000F8B507460088964B0122195C012948D119
:101990009149914C095C241D8E00A159FF25813588
:1019A0004D59ED073DD10222FF251A548135485982
:1019B00040084000485178689102884201D24005B1
:1019C00001E0C000001DA1594851B8680090401CBA
:1019D00001F056FC01020098FF2200780143A05953
:1019E00089328150B8680090401D01F049FC010225
:1019F0000098FF2200790143A0598D328150A159EE
:101A0000FF2085300A58120912010A50A1590A58BC
:101A10007B881A430A50A059415901221143415170
:101A200000221046F8BDF1B5012082B000256A49B8
:101A3000694B495D00241B1D8E009959A2000C3290
:101A40008A58920756D020010246FF32B13213461F
:101A50008A58970743D4C958520701D4490D00E06A
:101A6000C908029A034651605B4AFF33121D975919
:101A7000B533FB581F07029B3F0F5F805C4B9942B9
:101A800001D1002304E05A4BD633994202D10123FD
:101A900002990B8091590246FF32B9328F586B463A
:101AA0001F708B581F0A6B465F708B581F0C6B465C
:101AB0009F708A58FF30120EDA70BD300A581A71C2
:101AC0000A58120A5A710A58120C9A7108580822B8
:101AD000000ED871029819460830FEF77DFF3E4887
:101AE000001D8159A0000C300A5820231A430A50C7
:101AF000002003E0641CE4B2022C9FD36D1C2D0671
:101B00002D0E94D0FEBDF0B5354A3349145C012347
:101B1000095C022C1DD18C002F49091D0E59B56896
:101B2000EF070125002F02D0B560155400230E5990
:101B3000B768FF0504D5FF230133B36015540023B4
:101B400009598C68E40304D501231B048B601554E8
:101B500000231846F0BD7047FEB501214804FEF78A
:101B600066FD01218804FEF762FD01214806FEF7AB
:101B700083FD0120C0020090012468460471002505
:101B8000457185711B4EC47169463046FEF7DDFA1A
:101B900020020927FF06B86104220B213846FEF710
:101BA00040FB04220C213846FEF73BFB0320C00219
:101BB0000090022168460171032141718571C47151
:101BC00069463846FEF7C1FAB08AE1020843B0829E
:101BD000FEBD000010270000E0380008006600404D
:101BE0006C0200200200010000002301010E1C2AEB
:101BF000090700000004004830B50021C4684368AC
:101C0000826802E05D5C6554491C9142FAD3002170
:101C1000417030BD134610B50A461946FEF7DCFE8A
:101C2000002010BD13460A4610B501461846FEF7BF
:101C3000D3FE002010BD000070477047704770470A
:101C400070B50F4948690F4A10400122520790426F
:101C500014D18C69486980F30888002083005D18DE
:101C60006D69401CD5503028F8D301210846FEF795
:101C7000FAFC0320FEF751FDA04770BDFEE7704758
:101C8000005000080000FE2F10480F49416100215C
:101C900081610721016170470C4901200A69D20363
:101CA00008D500208861084848610869012210436E
:101CB0000861002070470548016949084900016131
:101CC0000021416181617047FF7C000000E000E07D
:101CD0000F480E4901600F49016000214160FF215A
:101CE000F5318160C1680029FCD10B490160704762
:101CF00070470749084808607047BFF34F8F08498D
:101D00000648C860BFF34F8FFEE70000CCCC000050
:101D10000030004055550000AAAA00000400FA0552
:101D200000ED00E04648008B010446480160416038
:101D3000704770B5434C4500241F665B211D82002F
:101D4000414B8858012E04D1002666533F4C24682D
:101D500020433F4C6043885000D18B5070BD0A46F1
:101D600010B53849800009581046FEF783FE10BDB3
:101D700070B50E46012400F009F805463046FEF71E
:101D800058FE854200D10024204670BD30B5810048
:101D90002C4A85B051582F4C029102A96A4601ABDA
:101DA0000028019426D000200C5C1D5C6C4014546B
:101DB000401CC0B20428F7D3107802076846417867
:101DC000120F0809130100010343684603730B0156
:101DD000817808090343684643730B09C1781B01E6
:101DE000080903436846090183731143C1730398CB
:101DF00005B030BD00200C5C1D5C6C401454401CD0
:101E0000C0B20428F7D3117852780B011007000FE5
:101E1000034368460373130982781001034368463D
:101E200043731309C278100900010343684612077F
:101E30008373120F080902436846C273D7E7000094
:101E400000E000E074020020120035127C02002045
:101E5000A741000083BE72F910B500F02DFC00F020
:101E6000FDFFFA4800244472FEF72EFDF84800F00A
:101E700025FB204610BD10B5F448FEF768FD01F0C3
:101E80006CF800F0D8FC01F062F810BD10B500F05D
:101E9000CBFB00F0DEFB00F0EEFB10BD70B50E4694
:101EA000EB4915460024491CEA48FFF71EFC0028B0
:101EB00007D0E749E748C91CFFF717FC00280CD0FA
:101EC00010E001F0C9F8002803D0E349082000F031
:101ED00013FBE2484069804708E001F0B9F8DC48AC
:101EE00000F0ECFA304600F0FCFA2880204670BD85
:101EF000F8B50F4615460024D549D648FFF7F5FB3F
:101F0000002807D0FF2601363146D248FFF7EDFB07
:101F1000002801D0222410E03146CE48FFF7D2FB42
:101F200001F090F8CB48FFF728F8C948401C00F0B2
:101F3000C5FA384600F0D5FA28802046F8BD70B5BD
:101F40000E46C34915462224491CC248FFF7CDFB63
:101F500000280AD001F076F8BD48C01C00F0AEFAA7
:101F6000304600F0BEFA28800024204670BD10B52F
:101F7000002401F071F8002804D0B749082010317E
:101F800000F0BAFAB54840698047204610BD70B5E8
:101F900015460A46002415210320FEF78DFD002872
:101FA00001D0222401E015202880204670BD70B5A4
:101FB00015460A4600240C210420FEF77DFD00286A
:101FC00001D0222401E00C202880204670BD70B58D
:101FD00015460A4600240A210520FEF76DFD00285B
:101FE00001D0222401E00A202880204670BD70B56F
:101FF00015460A4600240A210220FEF75DFD00284E
:1020000001D0222401E00A202880204670BD70B54E
:1020100015460A46002410210620FEF74DFD002833
:1020200001D0222401E010202880204670BDF8B5A0
:1020300015460F4600248548FEF775FC002801D0A0
:10204000372417E086498348FFF74FFB002815D057
:10205000844E80483146FFF748FB002814D000200A
:10206000FFF7C8FB39460020FFF7C7FB3146794828
:10207000FFF70FFB042028802046F8BD0422002132
:102080003846FEF7B1FCF5E739460020FFF7B5FB0F
:10209000F0E7F8B515460F4600246C48FEF743FC00
:1020A000002801D0372417E06F496A48FFF71DFB6D
:1020B000002815D06D4E67483146FFF716FB002803
:1020C00014D00120FFF796FB39460120FFF795FB5E
:1020D00031466048FFF7DDFA042028802046F8BD2D
:1020E000042200213846FEF77FFCF5E7394601203F
:1020F000FFF783FBF0E7F8B50E46074615460024C8
:1021000058495448FFF7F1FA002801D0242422E06E
:10211000324639460020FFF773FB554E00280ED09B
:102120004A48FEF707FC002801D0352413E048494F
:102130003246FF314748FFF7B5FA36240BE000205E
:1021400028804C4A4C494348FFF7ACFA3246444990
:102150004048FFF7A7FA2046F8BDF8B50E460746F7
:102160001546002441493B48FFF7BFFA002801D03B
:10217000242422E0324639460120FFF741FB3D4E40
:1021800000280DD03148FEF7D5FB002801D03524BA
:1021900013E0324638492F48FFF784FA36240CE022
:1021A00000202B492880324AFF312A48FFF77AFA6B
:1021B00032462D492748FFF775FA2046F8BD0978C1
:1021C0000020032901D03120704700211180704781
:1021D00010B514460846FFF7A7F810211D48FFF771
:1021E00058FA0020208010BD10B500240C7001208A
:1021F000108001021748FFF74CFA204610BD00205E
:10220000108070471CB5032269460A707F224A700D
:1022100088707820C870CC20087148718871C871A6
:10222000082000F069F900F01EFF1CBDF7B5087822
:1022300000250C46442801D013253BE050210548D9
:10224000FFF753FA002819D0222533E0C4060020F6
:1022500001000040A406002074390008A8380008D6
:102260000002004000040040002000400040004008
:102270000007004000700040001000401021AC48F2
:10228000FFF720FA601CFEF7CBFB0646601DFEF749
:10229000C7FB0746A74931204872FFF7B3FF3A460C
:1022A0003146A348FEF729FB0121002804D0217004
:1022B000029801802846FEBD00202070F8E770B526
:1022C0000C469C49312015464872FFF79BFF984801
:1022D000FEF7FCFE0126002803D026702E80002089
:1022E00070BD0020207040219148FFF7D2F9F5E73A
:1022F000F8B517460C460026FEF70DFB0125002811
:1023000006D025708B4800F008F93D803046F8BDB6
:1023100000202070F6E731207047F7B508780024D8
:102320000D46002802D16878442801D022241CE000
:10233000A81CFEF775FB0746A81DFEF771FB0600FB
:1023400007D0024639467A48FEF7C4FA00280BD176
:1023500001E0312409E07648FEF70FFF652809D037
:10236000012809D0002809D01024724800F0D5F8BF
:102370002046FEBD2424F8E77224F6E720202870CA
:102380006D49681CFEF75DFB6A480121C760066164
:102390000172029803210180EAE7F7B5441E0F4657
:1023A00000256348FEF70BFF652807D06148067AD1
:1023B0005F48FEF714FF002802D004E0242524E043
:1023C0003878B04205D13878B04204D0761EB04299
:1023D0001ED0732519E0574E012031694002814219
:1023E00002D9844202D103E0A14201D013250CE0BE
:1023F00036207072FFF706FF7B1C22464C48F168BE
:10240000FEF777FA002805D072254A4800F085F8D3
:102410002846FEBD029801210180307A401C3072AE
:10242000F0680019F0603069001B3061F0E7F8B522
:10243000074615460E4600243D48FEF7DEFE0028FE
:1024400004D03C4800F069F824240BE039493720D7
:102450004872FFF7D7FE324639463548FEF757FA3D
:10246000042028802046F8BD0020108070470020FE
:10247000108070472F48407AC4E610B500F0E2FDA6
:102480002E4A2B48511FFFF70DF92D49082000F067
:1024900033F810BD2A4910B50831082000F02CF897
:1024A00010BD274910B51031082000F025F800F0C4
:1024B000C9FD2248C01E00F001F810BD10B51F492B
:1024C0000446204AF9311A48FFF7ECF81E4A1F4922
:1024D0001748FFF7E7F8194A21461548FFF7E2F8D1
:1024E00010BD00220270322242700122042182704B
:1024F000F422C2700846704710B50A460146144CD3
:10250000002000F02FF800E0641E002000F07EF8AC
:10251000002801D0002CF7D110BD10B50021C160FA
:1025200001610172FF2151310148FFF7CBF810BD65
:10253000A4060020C406002002020000070000409C
:102540007C39000800070040007000400010004087
:10255000400D030010B5FFF7DBF910BD10B5FFF714
:10256000F0F910BD3EB5464B01241D88854213D9B4
:10257000082911D8002A0FD0C0005D68841C2D5B8B
:102580006C4625805B68001D185801906180684684
:102590000292FFF7F5F9044620463EBDF8B5044621
:1025A00038480125068847682046FFF73CFA00288E
:1025B0000FD010E0C100C9194A8823889A4206D179
:1025C00049686268914202D12080002503E0401CE6
:1025D00080B2B042EED32846F8BD7FB505466846C6
:1025E000FFF7DCFF06000ED168464088AC88A042A9
:1025F00000D80446224602A9A868FEF7EDF968460D
:10260000008828806C80304604B070BD10B51C4A2C
:102610000146138801208B4205D95268C800801CEE
:10262000105AFFF770FA10BD70B50024144D0CE07D
:10263000E0006968801C085AFFF765FA002802D19B
:10264000A96820468847641CA4B22888A042EFD815
:1026500070BD1FB56846FFF7A1FF00280AD10A48E0
:102660000A4980690860074A68464188936800887B
:1026700002AA98471FBD10B5FFF76DFA10BD000004
:10268000143300080833000800E000E07C0200205A
:102690000022027042704B7B43718B7B8371CB7B3A
:1026A000C3714B78037242820A78002AF74A00D03D
:1026B0000832C2618161704770B5F54DF54E002456
:1026C0006001210140198919FFF7E2FF641CA4B2DF
:1026D000022CF5D3EE4D0024EF4E40356001210170
:1026E00040198919FFF7D4FF641C2404240CF5D089
:1026F00070BD70B5E64B024652014033D4182278C3
:102700000120002A13D1E269002552798A420FD2B2
:10271000A2695278002A0AD1204600F0E4FA022089
:1027200020706570E570A069C0886082002070BD6F
:102730006172012020706570F5E7F7B514460D460B
:10274000082939D1002C37D0D14A012140320098D4
:1027500000F0D6FACD4E294674362246002811D014
:1027600083691F78002F03D01B7B1778BB4209D1E8
:10277000C3691B78D35C1B09032B03D1F36898470B
:10278000002819D0C24A0221009800F0B9FA29465F
:102790002246002810D083691C78002C03D01B7BB4
:1027A0001478A34208D1C3691B78D35C1B09032B9F
:1027B00002D29B00F3589847FEBD70B5B74D014655
:1027C0000024A000285800280DD0826992888A42EF
:1027D00009D10178AD4A89006032515888470020FC
:1027E000A100685070BD641C2404240CE9D070BDA5
:1027F000F7B51646074600240EE0019861010D1852
:10280000688A00280BD0401E68822878C0003158A2
:1028100028468847641CA4B2BC42EED3FEBD28788B
:10282000C00080194168284688470028F2D1284610
:1028300000F079FAEEE7954A10B51032944902207B
:10284000FFF7D6FF914A9249383240310120FFF715
:10285000CFFF10BDF8B50446E6691746327801206F
:10286000BA5C15072D0F19D07279AA4216D38D4282
:1028700014D22078022803D9207A092100F0A5FB80
:1028800070782A46C11920460A30FEF7A5F865720D
:1028900001202070A069008960820020F8BDF7B592
:1028A0000446806901274078002829D1E56902980B
:1028B00029780818FEF7A1F806056879360DB042A8
:1028C0001ED22078022803D9207A092100F07DFB4E
:1028D00029780198421AA9780298091820460A30E6
:1028E000FEF77AF83146204600F0FDF90020E0704E
:1028F000A069C17BE17102212170008960820027FB
:102900003846FEBD70B5044621780125C06903290B
:1029100021D1A38A002B1ED00678E178965D491C50
:1029200009073607090F360F8E4216D1E1705B1E7C
:102930001904090CA18213D04379407881181846F4
:1029400000F02FFB05000DD0207A012100F03DFBA7
:10295000204600F0E8F9284670BD207A0821F5E706
:10296000637AEAE7A06940896082A0790028F2D002
:10297000A18A0029EFD0401E0006000EA071EAD106
:102980000021204600F0D4F9E5E710B5044623788D
:102990000121C069042B2FD10178515C0907090F6F
:1029A00005D001291DD002291FD007201EE0C178C3
:1029B000515CA1710079105C7F2806D9F138092893
:1029C00001D2012003E07F2001E0401CC0B2607111
:1029D0000321217000216170A169C9886182207181
:1029E00009E0A0690089608205E0062000F022FB72
:1029F000204600F098F90021084610BD704710B538
:102A00000446002000F016FB204600F08CF910BDB3
:102A1000C178491CC1700421017000214170816995
:102A200009894182704710B5044600206070E07843
:102A3000401CE070A08A00280DD0A079002811D099
:102A4000401E0006000EA07104D104202070A06971
:102A50000089608210BD002000F0ECFA204600F0F2
:102A600062F910BDA069C08860826079207110BDD4
:102A700010B58178002904D0012911D000F053F954
:102A800010BD03210170816949890DE0AC3900084E
:102A9000D8060020203300084033000880020020C0
:102AA0000221017081690989418210BD70470120AE
:102AB000704710B50446407A00F05EFA00280DD148
:102AC0002146607A0A3100F06CFA0028207A06D09C
:102AD000012100F07AFA204600F025F910BD00210E
:102AE000F7E70020704710B50446C08A00F044FAAA
:102AF000002806D0062803D10221204600F018F94C
:102B000010BDE069214680790A3100F04AFA0028B8
:102B100007D0207A012100F058FA204600F003F98E
:102B200010BD0021E9E710B5C1790022002905D0C8
:102B3000491EC171012100F0FBF80122104610BDB1
:102B400010B50446808A002806D1207A002100F0C2
:102B50003CFA204600F0E7F810BD10B5007A0C21D1
:102B600000F033FA002010BD70B50446407800280C
:102B70002AD1A16925460A780A35E069002A01D0E0
:102B80000A7B2A70A17803780907090F3031E954CC
:102B9000C378A279EA5402796179A954E069A169FC
:102BA000C0798E8808210A1A2818CC21FDF71CFF4D
:102BB0002A4608213046FFF7D5FC002804D1012021
:102BC00060707D49B0000C5070BD10B5817801294E
:102BD00003D0007A0A2100F0F8F9002010BDF8B502
:102BE00004464078002828D1A16925460A780A358C
:102BF000E069002A01D00A7B2A70617A027809070D
:102C0000090FA954E169607A4978A2694618978842
:102C1000691800F0F9F90820821BA819CC21FDF7EA
:102C2000E3FE2A4608213846FFF79CFC002804D121
:102C3000012060706049B8000C50F8BD10B50A2042
:102C400000F0F8F9002010BD70B504464078002867
:102C500026D1A269254613780A35E18AE069002B5E
:102C600001D0137B2B7009050122090D120389186D
:102C700002785019FDF7E5FEE069A2698178807954
:102C80009688691800F0C0F92A4608213046FFF7F7
:102C900069FC002804D1012060704749B0000C5045
:102CA00070BD10B50A2000F0C5F9002010BD10B5A8
:102CB0004178002909D10179002904D0491E09066B
:102CC000090E017101D100F03EF810BD10B50A20C7
:102CD00000F0B0F9002010BD704710B50B2000F0D7
:102CE000A9F9002010BD70B50446C0690D464179B0
:102CF000284600F0AFFAE582491C6172A08270BDDF
:102D000030B50446002003460AE05D01AD18AD6908
:102D10006D88A54202D15801801830BD5B1C9BB262
:102D20008B42F2D330BD0021017041704182704767
:102D300004220270002242708269D3884382927B0F
:102D4000827181707047F8B50446A16925460A78FA
:102D5000C0690A35002A01D00A7B2A70E17802781E
:102D60000907090F2031A954A08A401E07043F0C0F
:102D70001FD0E0694079E169A269497892884618D4
:102D80006918009200F040F90820821BA819CC2194
:102D9000FDF72AFE2A4608210098FFF7E3FB0028EA
:102DA00006D1A782012060700098034980000C5072
:102DB000F8BD607ADFE700008002002030B5254BC7
:102DC000254C002108460022C50702D04008584083
:102DD00000E04008521C92B2082AF5D38A00491C30
:102DE00089B2A050FF29EDD930BD10B50021C943EB
:102DF000FEF719FA10BDF8B515460C460646FEF763
:102E00000AFA01460020144A07E02F5CCBB27B404F
:102E10009B00D358090A5940401CA042F5D33046C4
:102E2000FEF701FA0020F8BDF8B516460F4601245A
:102E3000FEF7F1F90546042F0AD13046FDF7F0FD03
:102E4000E943884201D1002402E03046FDF70AFE42
:102E50002046F8BD2083B8ED38070020BC4800218B
:102E6000017041707047F0B58BB0002069468883CF
:102E700088810546B748B84C81880191C7682669A2
:102E80007819726807A99047281885B26846838B1D
:102E9000002062888446E16815E0182444430C5BF6
:102EA0009C420ED11822504344180FD0A16800292B
:102EB0000ED0AA480140AA48FEF717FC002805D109
:102EC00006E0401C80B29042E7D36446707819E077
:102ED000A088002802D00199884205D8E0880028FF
:102EE00004D00199884201D2132027E0A16800296B
:102EF0000BD09A48113801409948FEF7F6FB00289C
:102F000003D0B078002810D018E0A168002908D0BC
:102F1000944801409248FEF7E8FB002801D0332096
:102F20000CE0E0680028AAD101E0002C06D001984E
:102F30007919401B636980B203AA98476946898959
:102F4000844A491989B200F0BEF80BB0F0BD81483F
:102F50000078800700D586E7704710B57C48417837
:102F6000012904D14188002902D0491E418010BDA9
:102F70000220FEF77AFB10BD764902460B8800203E
:102F8000002B01D0052070470B89934201D2062007
:102F9000704700234B808A8001220A806C494B7065
:102FA000704770B56B4C0646227800256088D207C2
:102FB00008D0E26810183246FDF70EFD60888019CF
:102FC000608000E00125284670BD70B50024614D89
:102FD000002904D06C802C8000F067F870BD5F4A37
:102FE000002802D0012808D102E05C49083901E03C
:102FF0005A4910395A48FEF755FB6C800220288048
:103000000020FEF732FB70BD70B5524C0B460646F1
:10301000217800256088490709D5E16832460918FA
:103020001846FDF7D9FC60888019608000E0012512
:10303000284670BD10B5474800214180018000F04E
:1030400034F810BD42484849418001214170704721
:103050003F490020487070473D4900200978002909
:1030600000D1012070473A4900200870704700786D
:1030700008800120704710B50378354A1C0605D535
:10308000012414705A06520E027001E000231370DE
:1030900000784006400E0880012010BD10B50C4697
:1030A000FDF7ABFC2080022010BD2C4910B517396C
:1030B0002B48FEF71AFB002804D025482A494180F6
:1030C0000121417010BDF8B5224D002600280BD01B
:1030D0000446032021490090174610392048FEF786
:1030E00004FB00281AD113E019480078002829D1E0
:1030F0001089884226D3D180D26810784030107071
:10310000042028800020FFF7F4FA00281AD11CE0E0
:10311000112C17D0122C15D0312C13D00098F88018
:10312000F9687F2208780A70F9684870F868847036
:103130000420288000200099FFF7DBFA002804D043
:103140002E8002E02E80FFF7B0FF01480670F8BD28
:103150008402002044020020343700081800004098
:10316000A406002000330340881300000446A06832
:103170008047E068FEF762FAF9E7000070B52F4873
:1031800041690122520411434161416952001143D6
:1031900041610920C0060268FF2101310A43026033
:1031A00003688A0013430360254803680B430360E8
:1031B000016811430160026840210A43026003680C
:1031C000102213430360838A042423438382036809
:1031D0000C022343036003688C0123430360848A49
:1031E00080239C438482848A08252C438482848A99
:1031F00014438482828A0A438282818A2022114374
:103200008182818A19438182FEF7E2F9FDF7AEFBE4
:103210000446022801D1FDF7BFFBFEF7EBF920467B
:10322000FEF7F7F90020401C80B20428FBD30548C4
:103230000168486889688847002070BD0010024016
:1032400000040048640200207047FEE770477047A2
:103250007047704730B50B460146002020220124FC
:1032600009E00D46D5409D4205D31D469540491BBA
:103270002546954040191546521E002DF1DC30BD03
:103280000321001D401E037812021A43491EF9D57E
:1032900010467047064C0125064E05E0E36807CC52
:1032A0002B430C3C98471034B442F7D3FCF70CFF87
:1032B000483A0008683A000802E008C8121F08C12E
:1032C000002AFAD170477047002001E001C1121FA7
:1032D000002AFBD170470000E80300000200000054
:1032E000A9090008C309000802000000E032000834
:1032F000000000000907000000000100DF070000D7
:10330000010000008907000002000000F032000800
:103310003B2700080100000000330008BB2700081D
:10332000000000000000460046009600000000007B
:103330000001010000004600460096000000000069
:10334000000000000000460096004600000000005B
:1033500089CED73FBBB5B5B5BABABABA020000003C
:10336000C0000020040000005033000802000100EB
:10337000005000080400000054330008020001005F
:10338000045000080A0000000000000001000100D5
:10339000E0500008150000000000000001000100DE
:1033A000105100080C0000000000000001000100A6
:1033B000585100080A000000000000000100010050
:1033C000705100081000000000000000070000001D
:1033D0005C33000801000000000002001F030040F1
:1033E00000000000000000009D1E00080200000018
:1033F000000002001E03004000000000000000006A
:10340000F11E000803000000000002001D03004040
:1034100000000000000000003F1F00080100000045
:10342000000002000000000000000000000000009A
:103430006F1F000889F1000000000000000000007C
:1034400000000000000000008F1F000887F100004E
:10345000000000000000000000000000000000006C
:10346000AF1F000884F10000000000000000000011
:103470000000000000000000EF1F000893F10000B2
:10348000000000000000000000000000000000003C
:10349000CF1F000895F100000000000000000000B0
:1034A00000000000000000000F20000809000000DC
:1034B0000200020000000000000000000000000008
:1034C0002F2000080A00000006000600000000008F
:1034D0000000000000000000F720000801000000CC
:1034E00002000200000000000000000000000000D8
:1034F0009320000802000000060006000000000003
:1035000000000000000000005B2100080300000034
:1035100000000000000000000000000000000000AB
:10352000BF210008000000000000000000000000B3
:103530000000000000000000BF21000884F100002E
:1035400004000D000000000000000000000000006A
:10355000D121000800FF000005000D00120200400C
:1035600000000000000000002D2200080202000000
:1035700004000400120200400000000000000000EF
:10358000BF22000801FF00000400040012020040F6
:103590000000000000000000F1220008030200000B
:1035A000040004001420004000000000000000009F
:1035B000E92100080100040000000000162200407C
:1035C00054350008403A00080000000000000000E8
:1035D00000000000000000000000000000000000EB
:1035E0006924000801000000000000000000000045
:1035F00000000000000000006F240008020000002E
:1036000000000000000000000000000000000000BA
:103610006F240008100003000200020000000000F8
:10362000D4330008383A00080000000011000100FF
:10363000020002001E0300401C340008383A000853
:103640000000000022000500030003001F030040EB
:1036500034340008403A000800000000270004004D
:103660000200000016030040AC340008383A00089D
:103670000000000028000200030003001E030040B9
:103680000C350008383A0008000000002E00010048
:1036900004001400160200403C350008403A0008BF
:1036A000000000003100010004000000162200406C
:1036B000B4350008383A000800000000340000006B
:1036C0000B000B0012020040000000000000000090
:1036D0001B23000836000000030000001202004017
:1036E00000000000000000009B23000837000000DD
:1036F000050005001202004000000000000000006C
:103700002F2400083E000100020002001F030040B9
:10371000CC350008383A000800000000850002009F
:10372000020002001E030040E4350008383A000899
:103730000000000000000C0000000000000000007D
:1037400014360008303A000800000000005000085D
:1037500000A00100000800000200000001000000BD
:103760005802002054020020010000000000000068
:1037700000000000000000000000000000500008F1
:1037800000A00100FFFFFFFF0100FFFF0200FFFF9D
:10379000FFFF0000040000005C0200205602002031
:1037A0000000000000000000000000000000000019
:1037B000000000000000002000020000FFFFFFFFEB
:1037C000FFFFFFFFFFFFFFFFFFFF00000100020000
:1037D00001000000010000005C370008000000004C
:1037E00000000000151C0008251C00080000000057
:1037F000410C0008910C0008DB0D0008B10C00081A
:10380000570E0008040000000000002000400000E7
:10381000DC370008018000000000000800F0010013
:10382000F037000802000000043800080200000021
:10383000943900086D310008010000002C380008A0
:10384000010000007B24000804000000952400080B
:1038500002000000A3240008D11C0008F31C00088B
:10386000FB1C0008F11C0008891C0008B71C00089C
:10387000991C0008552500085D250008DB25000877
:10388000652500080D2600080300000040380008E8
:10389000021003000000000073160008A9150008BC
:1038A000FB1C0008B9150008000105005838000885
:1038B000000000006838000874380008FB1C00088D
:1038C000251D0008331D00085F1D0008711D00083C
:1038D000BD2D0008EB2D0008F72D0008292E00084B
:1038E00000000000006400406000000000000000D4
:1038F00003003A0200000000070000000200000080
:1039000007000000000020E10000E0FF0000E0FBF5
:103910000000E0FF0000C0240000E0FF000040388D
:103920000000E0FF0000A0380000E0FF000000669B
:103930000000E0FF0000A06C0000E0FF000000704D
:103940000000E0FF0000A0700000E0FF0000007F2A
:103950000000E0FF000020E10000E0FF0000E0FBCD
:103960000000E0FF0000E0FB0000E0FF000000803E
:10397000000000F0065001003201F4CC06500200B5
:103980003201F4CC025101CCCCCCCCCC065003009B
:103990003201F4CC00000000591E00088D1E000802
:1039A000771E0008752400080000000000010201D5
:1039B000020706030102030203060504AD2A0008FC
:1039C000AF2A0008B32A0008E32A0008E72A000803
:1039D000272B0008412B00085B2B0008692B0008EF
:1039E000CB2B0008AD2A0008AF2A0008DF2B000807
:1039F0003D2C0008492C0008A32C0008AF2C00081F
:103A0000CD2C0008D92C0008DB2C0008FD2900086B
:103A1000FF290008112A0008272A0008712A000837
:103A2000552800089F280008052900088B29000850
:103A300001117F006F30000802127E00773000080D
:103A4000033122009D300008683A0008200200205F
:103A500068000000B8320008D03A00088802002050
:103A6000B00C0000C832000800000000010203048E
:103A700001020304060708090048E80100000000ED
:103A8000000000000102030406070809000000000E
:103A9000000000001002000088020020000000006A
:103AA0000000000000000000000000000000000016
:103AB0000000000000000000010001000000000004
:103AC00000000000000000000000000000000000F6
:04000005080000C12E
:00000001FF
